{
  "_format": "hh-sol-artifact-1",
  "contractName": "FreelanceToken",
  "sourceName": "contracts/FreelanceToken.sol",
  "abi": [
    {
      "inputs": [],
      "stateMutability": "nonpayable",
      "type": "constructor"
    },
    {
      "anonymous": false,
      "inputs": [
        {
          "indexed": true,
          "internalType": "address",
          "name": "owner",
          "type": "address"
        },
        {
          "indexed": true,
          "internalType": "address",
          "name": "spender",
          "type": "address"
        },
        {
          "indexed": false,
          "internalType": "uint256",
          "name": "value",
          "type": "uint256"
        }
      ],
      "name": "Approval",
      "type": "event"
    },
    {
      "anonymous": false,
      "inputs": [
        {
          "indexed": true,
          "internalType": "address",
          "name": "company",
          "type": "address"
        },
        {
          "indexed": true,
          "internalType": "address",
          "name": "freelancer",
          "type": "address"
        },
        {
          "indexed": false,
          "internalType": "uint256",
          "name": "amount",
          "type": "uint256"
        },
        {
          "indexed": false,
          "internalType": "uint256",
          "name": "cost",
          "type": "uint256"
        }
      ],
      "name": "TokensBought",
      "type": "event"
    },
    {
      "anonymous": false,
      "inputs": [
        {
          "indexed": true,
          "internalType": "address",
          "name": "freelancer",
          "type": "address"
        },
        {
          "indexed": false,
          "internalType": "uint256",
          "name": "amount",
          "type": "uint256"
        }
      ],
      "name": "TokensMinted",
      "type": "event"
    },
    {
      "anonymous": false,
      "inputs": [
        {
          "indexed": true,
          "internalType": "address",
          "name": "company",
          "type": "address"
        },
        {
          "indexed": true,
          "internalType": "address",
          "name": "freelancer",
          "type": "address"
        },
        {
          "indexed": false,
          "internalType": "uint256",
          "name": "amount",
          "type": "uint256"
        },
        {
          "indexed": false,
          "internalType": "uint256",
          "name": "revenue",
          "type": "uint256"
        },
        {
          "indexed": false,
          "internalType": "uint256",
          "name": "senderBalance",
          "type": "uint256"
        },
        {
          "indexed": false,
          "internalType": "uint256",
          "name": "companyBalance",
          "type": "uint256"
        }
      ],
      "name": "TokensSold",
      "type": "event"
    },
    {
      "anonymous": false,
      "inputs": [
        {
          "indexed": true,
          "internalType": "address",
          "name": "from",
          "type": "address"
        },
        {
          "indexed": true,
          "internalType": "address",
          "name": "to",
          "type": "address"
        },
        {
          "indexed": false,
          "internalType": "uint256",
          "name": "value",
          "type": "uint256"
        }
      ],
      "name": "Transfer",
      "type": "event"
    },
    {
      "inputs": [
        {
          "internalType": "address",
          "name": "owner",
          "type": "address"
        },
        {
          "internalType": "address",
          "name": "spender",
          "type": "address"
        }
      ],
      "name": "allowance",
      "outputs": [
        {
          "internalType": "uint256",
          "name": "",
          "type": "uint256"
        }
      ],
      "stateMutability": "view",
      "type": "function"
    },
    {
      "inputs": [
        {
          "internalType": "address",
          "name": "spender",
          "type": "address"
        },
        {
          "internalType": "uint256",
          "name": "amount",
          "type": "uint256"
        }
      ],
      "name": "approve",
      "outputs": [
        {
          "internalType": "bool",
          "name": "",
          "type": "bool"
        }
      ],
      "stateMutability": "nonpayable",
      "type": "function"
    },
    {
      "inputs": [
        {
          "internalType": "address",
          "name": "account",
          "type": "address"
        }
      ],
      "name": "balanceOf",
      "outputs": [
        {
          "internalType": "uint256",
          "name": "",
          "type": "uint256"
        }
      ],
      "stateMutability": "view",
      "type": "function"
    },
    {
      "inputs": [
        {
          "internalType": "address",
          "name": "freelancer",
          "type": "address"
        },
        {
          "internalType": "uint256",
          "name": "amount",
          "type": "uint256"
        }
      ],
      "name": "buyTokens",
      "outputs": [],
      "stateMutability": "payable",
      "type": "function"
    },
    {
      "inputs": [
        {
          "internalType": "uint256",
          "name": "amount",
          "type": "uint256"
        }
      ],
      "name": "calculateTokenPrice",
      "outputs": [
        {
          "internalType": "uint256",
          "name": "",
          "type": "uint256"
        }
      ],
      "stateMutability": "view",
      "type": "function"
    },
    {
      "inputs": [
        {
          "internalType": "uint256",
          "name": "amount",
          "type": "uint256"
        }
      ],
      "name": "createTokens",
      "outputs": [],
      "stateMutability": "nonpayable",
      "type": "function"
    },
    {
      "inputs": [],
      "name": "decimals",
      "outputs": [
        {
          "internalType": "uint8",
          "name": "",
          "type": "uint8"
        }
      ],
      "stateMutability": "view",
      "type": "function"
    },
    {
      "inputs": [
        {
          "internalType": "address",
          "name": "spender",
          "type": "address"
        },
        {
          "internalType": "uint256",
          "name": "subtractedValue",
          "type": "uint256"
        }
      ],
      "name": "decreaseAllowance",
      "outputs": [
        {
          "internalType": "bool",
          "name": "",
          "type": "bool"
        }
      ],
      "stateMutability": "nonpayable",
      "type": "function"
    },
    {
      "inputs": [
        {
          "internalType": "address",
          "name": "",
          "type": "address"
        }
      ],
      "name": "freelancerTokens",
      "outputs": [
        {
          "internalType": "uint256",
          "name": "",
          "type": "uint256"
        }
      ],
      "stateMutability": "view",
      "type": "function"
    },
    {
      "inputs": [
        {
          "internalType": "address",
          "name": "spender",
          "type": "address"
        },
        {
          "internalType": "uint256",
          "name": "addedValue",
          "type": "uint256"
        }
      ],
      "name": "increaseAllowance",
      "outputs": [
        {
          "internalType": "bool",
          "name": "",
          "type": "bool"
        }
      ],
      "stateMutability": "nonpayable",
      "type": "function"
    },
    {
      "inputs": [],
      "name": "initialTokenPrice",
      "outputs": [
        {
          "internalType": "uint256",
          "name": "",
          "type": "uint256"
        }
      ],
      "stateMutability": "view",
      "type": "function"
    },
    {
      "inputs": [],
      "name": "maxSupply",
      "outputs": [
        {
          "internalType": "uint256",
          "name": "",
          "type": "uint256"
        }
      ],
      "stateMutability": "view",
      "type": "function"
    },
    {
      "inputs": [],
      "name": "name",
      "outputs": [
        {
          "internalType": "string",
          "name": "",
          "type": "string"
        }
      ],
      "stateMutability": "view",
      "type": "function"
    },
    {
      "inputs": [],
      "name": "owner",
      "outputs": [
        {
          "internalType": "address",
          "name": "",
          "type": "address"
        }
      ],
      "stateMutability": "view",
      "type": "function"
    },
    {
      "inputs": [],
      "name": "priceIncreasePercentage",
      "outputs": [
        {
          "internalType": "uint256",
          "name": "",
          "type": "uint256"
        }
      ],
      "stateMutability": "view",
      "type": "function"
    },
    {
      "inputs": [],
      "name": "priceIncreaseThreshold",
      "outputs": [
        {
          "internalType": "uint256",
          "name": "",
          "type": "uint256"
        }
      ],
      "stateMutability": "view",
      "type": "function"
    },
    {
      "inputs": [
        {
          "internalType": "address",
          "name": "company",
          "type": "address"
        },
        {
          "internalType": "uint256",
          "name": "amount",
          "type": "uint256"
        }
      ],
      "name": "sellTokens",
      "outputs": [],
      "stateMutability": "nonpayable",
      "type": "function"
    },
    {
      "inputs": [],
      "name": "symbol",
      "outputs": [
        {
          "internalType": "string",
          "name": "",
          "type": "string"
        }
      ],
      "stateMutability": "view",
      "type": "function"
    },
    {
      "inputs": [],
      "name": "totalSupply",
      "outputs": [
        {
          "internalType": "uint256",
          "name": "",
          "type": "uint256"
        }
      ],
      "stateMutability": "view",
      "type": "function"
    },
    {
      "inputs": [
        {
          "internalType": "address",
          "name": "to",
          "type": "address"
        },
        {
          "internalType": "uint256",
          "name": "amount",
          "type": "uint256"
        }
      ],
      "name": "transfer",
      "outputs": [
        {
          "internalType": "bool",
          "name": "",
          "type": "bool"
        }
      ],
      "stateMutability": "nonpayable",
      "type": "function"
    },
    {
      "inputs": [
        {
          "internalType": "address",
          "name": "from",
          "type": "address"
        },
        {
          "internalType": "address",
          "name": "to",
          "type": "address"
        },
        {
          "internalType": "uint256",
          "name": "amount",
          "type": "uint256"
        }
      ],
      "name": "transferFrom",
      "outputs": [
        {
          "internalType": "bool",
          "name": "",
          "type": "bool"
        }
      ],
      "stateMutability": "nonpayable",
      "type": "function"
    }
  ],
  "bytecode": "0x60806040526103e86006556402540be400600755606460085560146009553480156200002a57600080fd5b506040518060400160405280600e81526020016d233932b2b630b731b2aa37b5b2b760911b81525060405180604001604052806002815260200161119560f21b81525081600390816200007e91906200014d565b5060046200008d82826200014d565b5050600580546001600160a01b031916331790555062000219565b634e487b7160e01b600052604160045260246000fd5b600181811c90821680620000d357607f821691505b602082108103620000f457634e487b7160e01b600052602260045260246000fd5b50919050565b601f8211156200014857600081815260208120601f850160051c81016020861015620001235750805b601f850160051c820191505b8181101562000144578281556001016200012f565b5050505b505050565b81516001600160401b03811115620001695762000169620000a8565b62000181816200017a8454620000be565b84620000fa565b602080601f831160018114620001b95760008415620001a05750858301515b600019600386901b1c1916600185901b17855562000144565b600085815260208120601f198616915b82811015620001ea57888601518255948401946001909101908401620001c9565b5085821015620002095787850151600019600388901b60f8161c191681555b5050505050600190811b01905550565b6110cf80620002296000396000f3fe60806040526004361061012a5760003560e01c80634b940270116100ab57806395d89b411161006f57806395d89b411461033b578063a457c2d714610350578063a9059cbb14610370578063c464fe6514610390578063d5abeb01146103b0578063dd62ed3e146103c657600080fd5b80634b9402701461026a5780635a5a6b791461028057806370a08231146102ad5780637e1f2bb8146102e35780638da5cb5b1461030357600080fd5b806323b872dd116100f257806323b872dd146101e25780632ca0228a14610202578063313ce56714610218578063351c9dbc14610234578063395093511461024a57600080fd5b806306fdde031461012f578063072de7f31461015a5780630752881a14610188578063095ea7b31461019d57806318160ddd146101cd575b600080fd5b34801561013b57600080fd5b506101446103e6565b6040516101519190610e93565b60405180910390f35b34801561016657600080fd5b5061017a610175366004610ee1565b610478565b604051908152602001610151565b61019b610196366004610f16565b61050b565b005b3480156101a957600080fd5b506101bd6101b8366004610f16565b6106ff565b6040519015158152602001610151565b3480156101d957600080fd5b5060025461017a565b3480156101ee57600080fd5b506101bd6101fd366004610f40565b610719565b34801561020e57600080fd5b5061017a60075481565b34801561022457600080fd5b5060405160128152602001610151565b34801561024057600080fd5b5061017a60095481565b34801561025657600080fd5b506101bd610265366004610f16565b61073d565b34801561027657600080fd5b5061017a60085481565b34801561028c57600080fd5b5061017a61029b366004610f7c565b600a6020526000908152604090205481565b3480156102b957600080fd5b5061017a6102c8366004610f7c565b6001600160a01b031660009081526020819052604090205490565b3480156102ef57600080fd5b5061019b6102fe366004610ee1565b61075f565b34801561030f57600080fd5b50600554610323906001600160a01b031681565b6040516001600160a01b039091168152602001610151565b34801561034757600080fd5b50610144610889565b34801561035c57600080fd5b506101bd61036b366004610f16565b610898565b34801561037c57600080fd5b506101bd61038b366004610f16565b610913565b34801561039c57600080fd5b5061019b6103ab366004610f16565b610921565b3480156103bc57600080fd5b5061017a60065481565b3480156103d257600080fd5b5061017a6103e1366004610f9e565b610a7a565b6060600380546103f590610fd1565b80601f016020809104026020016040519081016040528092919081815260200182805461042190610fd1565b801561046e5780601f106104435761010080835404028352916020019161046e565b820191906000526020600020905b81548152906001019060200180831161045157829003601f168201915b5050505050905090565b60008060065461048760025490565b6104919190611021565b6007546008549192509082106104f9576000600854836104b19190611034565b905060005b818110156104f6576064600954846104ce9190611056565b6104d89190611034565b6104e2908461106d565b9250806104ee81611080565b9150506104b6565b50505b6105038482611056565b949350505050565b6001600160a01b0382166000908152600a60205260409020546105885760405162461bcd60e51b815260206004820152602a60248201527f467265656c616e63657220646f6573206e6f74206578697374206f7220686173604482015269206e6f20746f6b656e7360b01b60648201526084015b60405180910390fd5b61059181610478565b34146105df5760405162461bcd60e51b815260206004820152601860248201527f496e636f7272656374207061796d656e7420616d6f756e740000000000000000604482015260640161057f565b6001600160a01b0382166000908152600a60205260409020548111156106585760405162461bcd60e51b815260206004820152602860248201527f4e6f7420656e6f75676820746f6b656e7320617661696c61626c6520666f7220604482015267707572636861736560c01b606482015260840161057f565b6001600160a01b0382166000908152600a602052604081208054839290610680908490611021565b9091555050336000908152600a6020526040812080548392906106a490849061106d565b909155506106b59050823383610aa5565b604080518281523460208201526001600160a01b0384169133917fc244d500136edffae7025aaf7fbd7a07193ac544a1d0cc3132cf2a32452d340c91015b60405180910390a35050565b60003361070d818585610c4b565b60019150505b92915050565b600033610727858285610d67565b610732858585610aa5565b506001949350505050565b60003361070d8185856107508383610a7a565b61075a919061106d565b610c4b565b336000908152600a6020526040902054156107cb5760405162461bcd60e51b815260206004820152602660248201527f467265656c616e6365722063616e206f6e6c792063726561746520746f6b656e60448201526573206f6e636560d01b606482015260840161057f565b6006548111156108305760405162461bcd60e51b815260206004820152602a60248201527f43616e6e6f7420637265617465206d6f7265207468616e20746865206d6178696044820152696d756d20737570706c7960b01b606482015260840161057f565b61083a3382610ddb565b336000818152600a602052604090819020839055517f3f2c9d57c068687834f0de942a9babb9e5acab57d516d3480a3c16ee165a42739061087e9084815260200190565b60405180910390a250565b6060600480546103f590610fd1565b600033816108a68286610a7a565b9050838110156109065760405162461bcd60e51b815260206004820152602560248201527f45524332303a2064656372656173656420616c6c6f77616e63652062656c6f77604482015264207a65726f60d81b606482015260840161057f565b6107328286868403610c4b565b60003361070d818585610aa5565b336000908152600a60205260409020548111156109805760405162461bcd60e51b815260206004820152601960248201527f4e6f7420656e6f75676820746f6b656e7320746f2073656c6c00000000000000604482015260640161057f565b336000908152600a60205260408120805483929061099f908490611021565b90915550506001600160a01b0382166000908152600a6020526040812080548392906109cc90849061106d565b90915550600090506109dd82610478565b604051909150339082156108fc029083906000818181858888f19350505050158015610a0d573d6000803e3d6000fd5b50336000818152600a60209081526040808320546001600160a01b038816808552938290205482518881529384018790529183015260608201527f34f38731fae2221a0127cde5769237f08a73e828efb7c9a19e4c6fa171ff763d906080015b60405180910390a3505050565b6001600160a01b03918216600090815260016020908152604080832093909416825291909152205490565b6001600160a01b038316610b095760405162461bcd60e51b815260206004820152602560248201527f45524332303a207472616e736665722066726f6d20746865207a65726f206164604482015264647265737360d81b606482015260840161057f565b6001600160a01b038216610b6b5760405162461bcd60e51b815260206004820152602360248201527f45524332303a207472616e7366657220746f20746865207a65726f206164647260448201526265737360e81b606482015260840161057f565b6001600160a01b03831660009081526020819052604090205481811015610be35760405162461bcd60e51b815260206004820152602660248201527f45524332303a207472616e7366657220616d6f756e7420657863656564732062604482015265616c616e636560d01b606482015260840161057f565b6001600160a01b03848116600081815260208181526040808320878703905593871680835291849020805487019055925185815290927fddf252ad1be2c89b69c2b068fc378daa952ba7f163c4a11628f55a4df523b3ef910160405180910390a35b50505050565b6001600160a01b038316610cad5760405162461bcd60e51b8152602060048201526024808201527f45524332303a20617070726f76652066726f6d20746865207a65726f206164646044820152637265737360e01b606482015260840161057f565b6001600160a01b038216610d0e5760405162461bcd60e51b815260206004820152602260248201527f45524332303a20617070726f766520746f20746865207a65726f206164647265604482015261737360f01b606482015260840161057f565b6001600160a01b0383811660008181526001602090815260408083209487168084529482529182902085905590518481527f8c5be1e5ebec7d5bd14f71427d1e84f3dd0314c0f7b2291e5b200ac8c7c3b9259101610a6d565b6000610d738484610a7a565b90506000198114610c455781811015610dce5760405162461bcd60e51b815260206004820152601d60248201527f45524332303a20696e73756666696369656e7420616c6c6f77616e6365000000604482015260640161057f565b610c458484848403610c4b565b6001600160a01b038216610e315760405162461bcd60e51b815260206004820152601f60248201527f45524332303a206d696e7420746f20746865207a65726f206164647265737300604482015260640161057f565b8060026000828254610e43919061106d565b90915550506001600160a01b038216600081815260208181526040808320805486019055518481527fddf252ad1be2c89b69c2b068fc378daa952ba7f163c4a11628f55a4df523b3ef91016106f3565b600060208083528351808285015260005b81811015610ec057858101830151858201604001528201610ea4565b506000604082860101526040601f19601f8301168501019250505092915050565b600060208284031215610ef357600080fd5b5035919050565b80356001600160a01b0381168114610f1157600080fd5b919050565b60008060408385031215610f2957600080fd5b610f3283610efa565b946020939093013593505050565b600080600060608486031215610f5557600080fd5b610f5e84610efa565b9250610f6c60208501610efa565b9150604084013590509250925092565b600060208284031215610f8e57600080fd5b610f9782610efa565b9392505050565b60008060408385031215610fb157600080fd5b610fba83610efa565b9150610fc860208401610efa565b90509250929050565b600181811c90821680610fe557607f821691505b60208210810361100557634e487b7160e01b600052602260045260246000fd5b50919050565b634e487b7160e01b600052601160045260246000fd5b818103818111156107135761071361100b565b60008261105157634e487b7160e01b600052601260045260246000fd5b500490565b80820281158282048414176107135761071361100b565b808201808211156107135761071361100b565b6000600182016110925761109261100b565b506001019056fea26469706673582212206dba94229ee00dbf4f19e951d2628688dc75718809c900e17fdd431e5841c98764736f6c63430008110033",
  "linkReferences": {},
  "deployedLinkReferences": {}
}